:040000008031A8287B
:10000800803120007F08F200813115218031F00015
:100018007008F8007803031D65287503031D2D2853
:100028000630250091008230F100DD30F000F00B41
:100038001B28F10B1B28003225009101F5018230A5
:10004800F100DD30F000F00B2728F10B27280032F3
:10005800A0287603031D4928063025009800823021
:10006800F100DD30F000F00B3728F10B37280032B3
:1000780025009801F6018230F100DD30F000F00B28
:100088004328F10B43280032A0287703031DA0283A
:100098000630260091008230F100DD30F000F00BD0
:1000A8005328F10B5328003226009101F7018230C2
:1000B800F100DD30F000F00B5F28F10B5F28003213
:1000C800A0280B1CA02820008D1A7B280C302500A6
:1000D80091008230F100DD30F000F00B7128F10B57
:1000E8007128003225009101F501F50AA0288D1B21
:1000F8008E280C30250098008230F100DD30F000A9
:10010800F00B8428F10B8428003225009801F601B1
:10011800F60AA0280D19A0280C302600910082307C
:10012800F100DD30F000F00B9728F10B9728003232
:1001380026009101F701F70A270096010B108B178B
:1001480072082000FF0009008031AA28F501F60195
:10015800F701F80120008031B128623021009900B0
:10016800E7308C00B3308D0020008C018D01230016
:100178008C018D0125009E010C3093000C309A00F3
:100188000C30260093000C309A007F3020009C0031
:100198009B309B002500910192019801990126004E
:1001A800910192019801990120009A011C152200E1
:1001B8001D109D1121009501FF3024008D000B10AA
:1001C800FF302700950094018B15250091019801B7
:1001D8002600910198018230F400DD30F300F30B22
:1001E800F328F40BF328003225009101980126002A
:1001F80091019801F501F601F7010B108B1581317A
:10020800072180310629243024009500940122001A
:100218001D139D1620009111210091150B178B17A6
:1002280008002000911D21292400141C21298B136A
:0E023800200091112400110808000030080079
:020000040001F9
:04000E00A4C9FFDCA6
:00000001FF
