:040000008231092A16
:10000800803120007F08A500911D062A24001108D0
:100018002000A000A1012008B7002108B800003086
:1000280038028030031937020318E6283808A1007F
:100038003708A0000430A136A00C890B1F2820081F
:10004800A2000330A235FF3E031D26282235083EB4
:10005800FF3A013E3707A3002308B600B61F502811
:100068000F30A0002008FA0036088231DB228031E8
:100078008231CA228031803E2000A1002108A600DA
:100088000F30A0002008FA0036088231DB228031C8
:100098008231CA2280316B280F30A0002008FA0074
:1000A80036088231DB2280318231CA228031200039
:1000B800A1002108A6000F30A0002008FA00360889
:1000C8008231DB2280318231CA228031803E200099
:1000D800A1002108A7003808A1003708A0000430B3
:1000E800A136A00C890B7428200303193D18802819
:1000F800AC01AC0A3D148128AC013808A1003708CE
:10010800A0000430A136A00C890B86282003031D0B
:100118003D1C8F283D103808A1003708A000043086
:10012800A136A00C890B9428023020060319BD18AB
:10013800A128AD01AD0ABD14B728AD013808A1004A
:100148003708A0000430A136A00C890BA72803307B
:10015800200603193D19B6280230A0002008AD007A
:100168003D15B728AD013808A1003708A0000430B4
:10017800A136A00C890BBC2803302006031D3D1DA9
:10018800C6283D113808A1003708A0000430A13660
:10019800A00C890BCB2802302006031DBD1CD528D6
:1001A800BD102608A0002008B9002708A0002008D4
:1001B800BA002C08A0002008BB002D08A0002008C9
:1001C800BC00042A3708803EB700FF30383DB8002D
:1001D8003808A1003708A0000430A136A00C890B0C
:1001E800F1282008FC3EA2002208B5003508A0002E
:1001F8000330A035FF3E031DFD282035483EFF3A59
:10020800013E3707A1002108B4000430F100003096
:10021800F20035088231DB2280312000A000A101E4
:100228002008F3002108F40082311322803171097B
:100238002000A2007209A300A20A0319A30A220837
:10024800023EAE000030233DAF002F08F2002E081A
:10025800F10034088231DB2280312000A000A101A6
:100268002008F3002108F40082311322803171083C
:10027800FF3A013E093E2000A2002208FA00350894
:1002880034078231CA228031FF3A013E2000A300A0
:100298002308B0000430F1000030F2003508823144
:1002A800DB2280312000A000A1012008F3002108F2
:1002B800F40082311322803171092000A2007209F2
:1002C800A300A20A0319A30A2208023EAE000030C6
:1002D800233DAF002F08F2002E08F10034088231C8
:1002E800DB2280312000A000A1012008F3002108B2
:1002F800F4008231132280317108FF3A013E093E31
:100308002000A2002208FA003403FF3A35078231A0
:10031800CA228031FF3A013E2000A3002308B10021
:1003280030088231DB2280312000A0000130A03566
:10033800890B9B29B01FA2290130A3290030A100F5
:100348000630A135FF3E031DA52921352007A2004F
:100358002208B20031088231DB2280312000A0005F
:100368000130A035890BB529B11FBC290130BD2941
:100378000030A1000630A135FF3E031DBF292135FD
:100388002007A2002208B30039080319CF298030BA
:100398003906031DDD293208A0002008A80033080B
:1003A800A0002008A9003308A0002008AA003208ED
:1003B800EA293908A0002008A8003A08A000200867
:1003C800A9003908A0002008AA003A08A0002008BF
:1003D800AB002A08A0002008F0002908A100210885
:1003E800F1002B08A2002208F2003B08A300230812
:1003F800F3003C08A4002408F40028088231642291
:10040800200091112508FF00090082310B2ABD0147
:10041800B901BA01BB01BC0120008231A22AF7014F
:10042800F21F1D2AF109F209F10A0319F20AF7016C
:10043800F70AF41F282AF309F409F30A0319F40A3E
:100448000130F5007508F706F801F9017108720422
:100458000319572AF601F60AF21B3C2A0130F13536
:10046800F20D890B332A0130F5007508F607302A9A
:100478000130F835F90D890B3D2A72087402031D05
:10048800472A71087302031C4E2A7108F302720886
:10049800F43B78140130F236F10C890B4F2A013005
:1004A800F602031D3C2A770803195F2AF809F9099F
:1004B800F80A0319F90A7908F2007808F100080027
:1004C800F50020000C158C150C168C178D178C1048
:1004D8007508240099001C1C6F2A20008C140C112C
:1004E8007008240099001C1C772A20000C158C1118
:1004F8007108240099001C1C7F2A20008C150C12FE
:100508007208240099001C1C872A20000C16730806
:100518000319962A8C137308240099001C1C922A2C
:1005280020008C177408031908008D137408240020
:1005380099001C1C9D2A20008D170800723021008C
:10054800990020308C0020008C0123008C0116308B
:1005580021008D0020008D0123008D0122001D1730
:100568009D16243024009500940121309D009C01A3
:1005780020009111210091150B178B1720008C1466
:100588000C158C150C168C178D17C92AFD00FC014B
:100598007D1CD22A7A08FB007B08FC070310FA0DA1
:1005A8000310FD0C7D08031DCC2A7C080800F00010
:0E05B800F01FE12A7003FF3A080070080800E7
:020000040001F9
:04000E00A4C9FFDCA6
:00000001FF
