:0400000080317828AB
:10000800803120007F08F60081312D218031700871
:100018007104031D282802307906031D27282100B2
:1000280091110130F0000030F100FF30F300730847
:10003800F200803180208031270096010B1040307B
:1000480094008B15282800000B1C74282700961F85
:10005800382820000D10270096010B1095018B11F0
:1000680020009111210091152700161F74280130D6
:10007800F0000030F100F2018031802080317708F3
:100088007804031D67280130F7000030F8000330BA
:10009800F5008A30F4005630F300F30B5128F40BC6
:1000A8005128F50B512800320130F0000030F100E2
:1000B8007F30F3007308F200803180208031270000
:1000C80096010B10742877037804031D7428F70130
:1000D800F801270096010B1094018B1181317421CE
:1000E80076082000FF00090080317A28F701F8011E
:1000F800F90120008131422970087104031D8E28FE
:1001080020000C107208240099001C1C892820006B
:100118000C14080070037104031D9D2820008C1026
:100128007208240099001C1C972820008C141410B5
:100138000800023070067104031DAC2820000C1161
:100148007208240099001C1CA72820000C15080020
:10015800033070067104031DBB2820008C1172083F
:10016800240099001C1CB62820008C1508000430B7
:1001780070067104031DCA2820000C12720824009E
:1001880099001C1CC52820000C16080005307006B4
:100198007104031DD92820008C13720824009900CB
:1001A8001C1CD42820008C17080006307006710427
:1001B800031DE82820000D107208240099001C1C5B
:1001C800E32820000D140800073070067104031D91
:1001D800F72820008D117208240099001C1CF228B1
:1001E80020008D150800083070067104031D0629CB
:1001F80020000D137208240099001C1C01292000FE
:100208000D170800093070067104031D080020004E
:100218008D137208240099001C1C102920008D17CA
:10022800080062302100990028308C00D6308D00FB
:10023800023020008C008D0123008C018D012100EB
:100248009501C03024008D00270096010B108B11FA
:1002580008002000911D3D292400141C3D29200080
:10026800911124001108F2007208F900F001F1015F
:1002780008000130F0000030F1000800813115213C
:10028800813181315621813181316B2181310B17C7
:100298008B1720008C194D29210091118131622181
:1002A80081314D29243024009500940122001D1726
:1002B8009D162000911121009115080020000D14B1
:1002C800270096010B10803095008B150800203010
:1002D80024009D009C012000141021001414080023
:1002E80020000D14270096010B10803095008B1507
:0202F8000800FC
:020000040001F9
:04000E00A4C9FFDCA6
:00000001FF
