:0400000080317928AA
:100008007E14803120007F08F60081313421803150
:1000180071087004031D27287908023A031D272850
:10002800210091110130F0000030F100FF30F300A1
:100038007308F200803182208031270096010B106E
:10004800403095008B150B1C74282700961F372805
:1000580020000D10270096010B1095018B11200030
:100068009111210091152700161F74280130F00006
:100078000030F100F2018031822080317808770465
:10008800031D66280130F7000030F8000230F50043
:100098004530F400A930F300F30B5028F40B502836
:1000A800F50B502800320130F0000030F1007F30AD
:1000B800F3007308F2008031822080312700960116
:1000C8000B107428013077067804031D7428F70193
:1000D800F801270096010B1095018B1181317B21C6
:1000E80076082000FF007E10090080317B28F70188
:1000F800F801F9017E102000813149297108700446
:10010800031D902820000C107208240099001C1C64
:100118008B2820000C140800013070067104031DA0
:10012800A4282100141420008C10720824009900BF
:100138001C1C9C2820008C1414102100141008008A
:10014800023070067104031DB32820000C117208D8
:10015800240099001C1CAE2820000C150800033050
:1001680070067104031DC22820008C117208240037
:1001780099001C1CBD2820008C150800043070064E
:100188007104031DD12820000C1272082400990064
:100198001C1CCC2820000C160800053070067104C1
:1001A800031DE02820008C137208240099001C1CF1
:1001B800DB2820008C170800063070067104031D28
:1001C800EF2820000D107208240099001C1CEA2852
:1001D80020000D140800073070067104031DFE2866
:1001E80020008D117208240099001C1CF928200099
:1001F8008D150800083070067104031D0D292000B4
:100208000D137208240099001C1C082920000D17E2
:100218000800093070067104031D080020008D13C2
:100228007208240099001C1C172920008D1708004B
:1002380062302100990028308C00D6308D000230C1
:1002480020008C008D0123008C018D012100950177
:10025800C03024008D00270096010B108B11080078
:100268002000911D44292400141C442920009111C8
:1002780024001108F2007208F900F001F1010800E9
:100288000130F0000030F100080081311C2181317B
:1002980081315D2181318131722181310B178B17B9
:1002A80020008C1954292100911181316921813153
:1002B8005429243024009500940122001D179D160E
:1002C8002000911121009115080020000D1427002D
:1002D80096010B10803095008B1508002030240003
:1002E8009D009C012000141021001410080020001B
:1002F8000D14270096010B10803095008B1508000F
:020000040001F9
:04000E00A4C9FFDCA6
:00000001FF
