:08000000803102288731FB2F3B
:100D4C0021008C0102308D0020008C018C012300CD
:100D5C008C018D01303024009500C13094002200AC
:100D6C001D1320009111210091150B178B170800F2
:100D7C0071087004031DCC2E20000C107208240086
:100D8C009100141CC72E20000C14080001307006B2
:100D9C007104031DDB2E20008C10720824009100BE
:100DAC00141CD62E20008C1408000230700671041E
:100DBC00031DE82E20000C11720824009100200065
:100DCC000C150800033070067104031DF72E20006B
:100DDC008C11720824009100141CF22E20008C152A
:100DEC000800043070067104031D062F20000C123D
:100DFC00720824009100141C012F20000C1608000E
:100E0C00053070067104031D152F20008C13720819
:100E1C0024009100141C102F20008C1708000630A1
:100E2C0070067104031D242F20000D10720824007D
:100E3C009100141C1F2F20000D14080007307006A1
:100E4C007104031D332F20008D11720824009100B2
:100E5C00141C2E2F20008D1508000830700671040C
:100E6C00031D422F20000D13720824009100141C46
:100E7C003D2F20000D170800093070067104031D6A
:100E8C00080020008D13720824009100141C4C2FB4
:100E9C0020008D1708007230210099008631A6269B
:100EAC0087310230F0000030F100F2018631BE26AD
:100EBC0087310230F0000030F100F2018631BE269D
:100ECC0087310230F0000030F100F2018631BE268D
:100EDC0087310230F0000030F100F2018631BE267D
:100EEC0087310230F0000030F100C030F30073089D
:100EFC00F2008631BE2687310230F0000030F1005E
:100F0C001630F3007308F2008631BE2687310230AA
:100F1C00F0000030F1007730F3007308F2008631F6
:100F2C00BE2687310230F0000030F1000530F300AE
:100F3C007308F2008631BE2687310230F000003093
:100F4C00F100F2018631BE2687310230F00000300C
:100F5C00F1001030F3007308F2008631BE268731A1
:100F6C000230F0000030F1000630F3007308F2009C
:100F7C008631BE2687310230F0000030F100F201DC
:100F8C008631BE2687310230F0000030F10010307F
:100F9C00F3007308F2008631BE2687310230F00070
:100FAC000030F1005030F3007308F2008631BE2699
:100FBC0087310230F0000030F100F2018631BE269C
:100FCC0087310230F0000030F100F2018631BE268C
:100FDC0087310230F0000030F1001030F30073085C
:100FEC00F2008631BE268731FA2FF4017E102000E4
:040FFC008731512FB9
:020000040001F9
:04000E00A4C9FFDCA6
:00000001FF
