:04000000803114280F
:10000800803120007F08F6000B1D1128F63095007E
:100018000130F0070030F13D0B117608FF000900B0
:1000280080311628F001F101F201F301F401F50124
:10003800200080311F287230210099002C308C005C
:1000480020008C0123008C01023021008D0020004B
:100058008D0123008D0121009501200095010B11D0
:100068008B128B170C1936280C1D3828F630950082
:10007800F001F1010C193E287108F3007008F20034
:100088008C1944288C1D4628F6309500F001F101A2
:100098008C194C287108F5007008F4007308803A30
:1000A800F70080307702031D5B288C307202031C36
:1000B8006B287308803AF70080307702031D6628A2
:1000C800A130720203186B2820000D136D28200040
:1000D8000D177508803AF70080307702031D7628DF
:1000E8008C307402031C86287508803AF70080302B
:1000F8007702031D8128A130740203188628200086
:0A0108008D13362820008D173628CD
:020000040001F9
:04000E00A4C9FFDCA6
:00000001FF
