:040000008031132810
:100008007E14803120007F08F10080314420F00008
:100018007008F20071082000FF007E10090080318E
:100028001528F2017E10200080313328203021006D
:100038008C0012308D0020008C018C0123008C0173
:100048008D01243024009500940122001D139D1673
:1000580020009111210091150B178B1708007230A1
:100068002100990080311A20803120008C018D01F7
:100078003E280C157208013A03193D280C113E2838
:100088002000911D4F282400141C4F282000911196
:0A00980024001108080000300800E1
:020000040001F9
:04000E00A4C9FFDCA6
:00000001FF
