:0400000080312E28F5
:10000800803120007F08F7002700131E18282000E1
:100018008C1E12280130D60700301528FF30D6076D
:10002800FF30D73D270013120B1D22289C302000DB
:1000380095000130D8070030D93D0B1182319B2241
:10004800F500F60175082000E1007608E20077085F
:10005800FF00090080313028F801D601D701D80106
:10006800D901DA01DB01DC01DD01DE01DF01E0019C
:10007800833123238031E10083312423E2002000EF
:10008800803146282000CA01CB01D001D101CC0122
:10009800CD01D401D501CE01CF01723021009900E4
:1000A80030308C0070308D0040308E0020008C0184
:1000B8008D018E0123008C018D018E0130302400CA
:1000C8008C0025009E01CC3093000A3096009101E7
:1000D80022001E119E1120009C017C309B002500EF
:1000E8009101920120009A011C1522009D131D11F7
:1000F800243023009E0090309D0000309C00333057
:100108009B0083311A2380310130210095009C30F7
:10011800200095000B118B161030270091009301D9
:100128008B150B178B17F43020005806031D9728E2
:100138005903031D97285308CB005208CA005609D3
:10014800C4005709C500C40A0319C50A6108440751
:10015800D0006208453DD1005308CD005208CC00BC
:100168004A09C4004B09C500C40A0319C50A500846
:100178004407D2005108453DD3005108A10050085A
:10018800A0000030A200A3008231C22280312000EA
:100198002008C4002108C5004C09C6004D09C70045
:1001A800C60A0319C70A52084607A0005308473D64
:1001B800A1000030A200A3008231C22280312000B9
:1001C80020084407C8002108453DC90052084807CF
:1001D800CE005308493DCF004E085407D4004F08BD
:1001E800553DD5005508803AC40080304402031DAF
:1001F800FF287C305402031C07297C302000D400DF
:100208000030D5000C292000D51F0C29D401D501B8
:1002180054082500910020005108C0005008BF0074
:100228008131EB2180312000D801D901D601D701D5
:1002380097282000BB003030B2003208B6002F08E3
:10024800B3002E08B200AE0A0319AF0A32088400C0
:10025800330885000008B4003408BC003C080319C2
:10026800E62925303C06031945293C08B2003B081D
:1002780086008701320881000130B2003208BB07CE
:100288002329B7012F08B3002E08B200AE0A0319BC
:10029800AF0A32088400330885000008BC00003A21
:1002A8000319E629643A03195D290D3A03195D29F2
:1002B8002329360886008701403FB900413FBA002C
:1002C8000230B2003208B607BA1F73290330B200F1
:1002D8003208B704B909BA09B90A0319BA0ABC013C
:1002E800BC0A05303C06031998293C08B200B30142
:1002F800B235B30D0030320784008330333D8500BA
:10030800003FB400013FB50035083A02031D8E29AD
:1003180034083902031C98290130B2003208BC079E
:1003280005303C06031D7929370803390319A72925
:100338002D30B2003B088600870132088100013069
:10034800B2003208BB073C08B2003208B800FF30E0
:10035800B2003208B807380A031923290A30A8005E
:100368000030A9003808B200B301B235B30D00302F
:10037800320784008330333D8500003FA000013FF1
:10038800A1003A08A3003908A2008231392281313C
:1003980020002108AB002008AA0082316E2281319A
:1003A80020002808303EB4003408BC003C08B200E5
:1003B8003B0886008701320881000130B20032080C
:1003C800BB07AB293B088600870181010800200094
:1003D800C201C3014008BE003F08BD0083310D23A0
:1003E80081312000C201C3014308803AC100803036
:1003F8004102031D012A073042020318222A200065
:10040800111A092A23009E1C032A200042085A3E7A
:1004180086008701010823009A002000111201308C
:10042800C2070030C33D4308803AC1008030410212
:10043800031D202A07304202031C032A2000111A38
:10044800282A23009E1C222A0A3023009A00200012
:1004580011122000111A332A23009E1C2D2A0D3058
:1004680023009A002000111208002000A501A6010F
:10047800200821040319692AA701A70AA11B4E2AEB
:100488000130A035A10D890B452A0130A4002408AC
:10049800A707422A0130A535A60D890B4F2A210846
:1004A8002302031D592A20082202031C602A20085F
:1004B800A2022108A33B25140130A136A00C890B08
:1004C800612A0130A702031D4E2A2608A10025082B
:1004D800A00008002000280829040319962AAD0165
:1004E800AD0AA91B812A0130A835A90D890B782AE4
:1004F8000130AC002C08AD07752A29082B02031D12
:10050800872A28082A02031C8D2A2808AA022908F3
:10051800AB3B0130A936A80C890B8E2A0130AD02FD
:10052800031D812A2B08A9002A08A800080020001A
:10053800911DC02A2400141CC02A200091112400F7
:10054800111CB32A4C30250093000330F4007408C2
:10055800F000240011087F398231DE220800CC30F7
:1005680025009300FD30F4007408F0002400110801
:100578007F398231DE220800003008002000A40103
:10058800A501201CCB2A2208A4072308A53D013079
:10059800A235A30D890BCC2A0130A136A00C890BFA
:1005A800D12A20082104031DC52A2508A1002408F2
:1005B800A0000800F300F201731CE62A7008F1009D
:1005C8007108F2070310F00D0310F30C7308031DF4
:0605D800E02A7208080091
:10060000013400340A34003464340034E8340334F0
:10061000103427342534643400340A302000AE000E
:100620008330AF003E08B1003D08B0005A30813140
:100630001D21080024302400950094012000911110
:0A064000210091150800BE340034BB
:020000040001F9
:04000E00A4C9FFDCA6
:00000001FF
