:040000008031112812
:10000800803120007F08F10080314020F000700826
:10001800F20071082000FF00090080311328F20166
:10002800200080313028203021008C0012308D00D3
:1000380020008C018C0123008C018D0124302400C8
:100048009500940122001D139D1620009111210096
:1000580091150B178B170800723021009900803119
:100068001720803120008C018D013B280C1572036C
:1000780003193A280C113B282000911D0800240080
:0E008800141C0800200091112400110808002B
:020000040001F9
:04000E00A4C9FFDCA6
:00000001FF
