:04000000803119280A
:10000800803120007F08F90081310D218031F8000E
:100018007808F0002000111E0E28700823009A00AE
:10002800200011127908FF00090080311B28F00117
:10003800F101F201F301F401F501F601F7012000E5
:100048008031262872302100990030308C007030C1
:100058008D0040308E0020008C018D018E01230020
:100068008C018D018E0122009D131D112430230067
:100078009E0090309D0000309C0033309B00813101
:0A0088001A2180310B178B1748284E
:10020000013400340A34003464340034E8340334F4
:10021000103427342534643400342000911D18290B
:100220002400141C18292000911124001108080032
:100230000030080024302400950094012000911122
:06024000210091150800E9
:020000040001F9
:04000E00A4C9FFDCA6
:00000001FF
