:0400000080315D28C6
:10000800803120007F08F600813126218031700878
:100018007104031D2E287D03031D2D282100911135
:1000280077037804031D212801302000A000003048
:10003800A10081314D2180312E2877087804031DD5
:100048002E288031752080312000911121009115D2
:100058002E2800000B1C59282700961E59288B11A2
:1000680020000D100230F5004530F400A930F300EF
:10007800F30B3C28F40B3C28F50B3C2800322000FD
:1000880020032104031D4C28803175208031552818
:10009800200020082104031D55280130F7000030F6
:1000A800F800200091112100911576082000FF002A
:1000B800090080315F28FD01A001A10156308400AC
:1000C800813085001200F7001200F8001200F900D4
:1000D8001200FA001200FB001200FC002000803120
:1000E800D82877087804031D912879037A04031D1A
:1000F8009128063026009100C330F100CD30F00081
:10010800F00B8428F10B8428260091010130F700B8
:100118000030F800F901FA01080077087804031D97
:10012800B12879087A04031DB1287B037C04031DD8
:10013800B128063026009800C330F100CD30F00019
:10014800F00BA428F10BA428260098010130F70031
:100158000030F800FB01FC01080077087804031D53
:10016800080079087A04031D08007B087C04031D35
:1001780008000C30260091000C309800C330F100C4
:10018800CD30F000F00BC628F10BC62826009101EF
:100198009801F701F8010130F9000030FA00013048
:1001A800FB000030FC00080081310E2180318131D4
:1001B8003821803125009E010C30260093000C3038
:1001C8009A007F3020009C009B309B002600910104
:1001D80092019801990120009A011C150C30260003
:1001E80091000C309800C3302000A300CD30A2004D
:1001F800A20BFC28A30BFC282600910198010B17E1
:100208008B1720008D1B0529A001A10181314421F4
:100218008031052962302100990020308C00F230AD
:100228008D0020008C018D0123008C018D0121009F
:100238009501E03024008D002700951696120B10CA
:100248008B1108002000911D33292400141C332928
:100258001108F2007208FD00F001F10108000130F8
:10026800F0000030F10008002430240095009401CB
:1002780022001D139D1620009111210091150800E0
:10028800F701F80120000D14270096120B108B15AA
:100298000800F701F80120000D14270096120B1032
:1002A8008B15080000340034013400340134003464
:020000040001F9
:04000E00A4C9FFDCA6
:00000001FF
