:08000000803102288731F62F40
:100C82000A302000A0008830A1003008A3002F08FD
:100C9200A2003B308731292708007808790403191C
:100CA200752EFD01FD0AF91B602E0130F835F90D94
:100CB200890B572E0130FC007C08FD07542E790861
:100CC2007B02031D662E78087A02031C6C2E7808BC
:100CD200FA027908FB3B0130F936F80C890B6D2ECC
:100CE2000130FD02031D602E7B08F9007A08F8002E
:100CF2000800F501F601700871040319A92EF70125
:100D0200F70AF11B8E2E0130F035F10D890B852E7D
:100D12000130F4007408F707822E0130F535F60D24
:100D2200890B8F2E71087302031D992E70087202AF
:100D3200031CA02E7008F2027108F33B75140130F7
:100D4200F136F00C890BA12E0130F702031D8E2E15
:100D52007608F1007508F0000800C7302000B900DD
:100D6200CF30BA0072302100990023008C0120306C
:100D720021008C0020008C0123008D0121008D01B7
:100D820020008D0122009D171D15243023009E0096
:100D920090309D0000309C0033309B0006302000D4
:100DA200B8001330B700B130B600B60BD62EB70B71
:100DB200D62EB80BD62E003220003A08B2003908DF
:100DC200B1008631E6268631DD2E2000B401B50160
:100DD2003208B0003108AF0086314126863120004A
:100DE200B401B5013508803AB30080303302031DE7
:100DF200FC2E073034020318192F2000111EFE2E7C
:100E020034083B3E86008701010823009A00200037
:100E120011120130B4070030B53D3508803AB300F5
:100E220080303302031D172F07303402031CFE2EBD
:100E32002000111E192F0A3023009A0020001112DF
:100E4200111E212F0D3023009A00200011120800DC
:100E52002000AD002230A4002408A8002108A5002B
:100E62002008A400A00A0319A10A24088400250866
:100E720085000008A6002608AE002E080319F12FEF
:100E820025302E060319512F2E08A4002D088600A6
:100E92008701240881000130A4002408AD072F2F08
:100EA200A9012108A5002008A400A00A0319A10A8B
:100EB20024088400250885000008AE00003A0319C2
:100EC200F12F643A0319692F0D3A0319692F2F2F55
:100ED200280886008701403FAB00413FAC0002304A
:100EE200A4002408A807AC1F7F2F0330A400240805
:100EF200A904AB09AC09AB0A0319AC0AAE01AE0AEC
:100F020005302E060319A42F2E08A400A501A4352E
:100F1200A50D0030240784008830253D8500003F60
:100F2200A600013FA70027082C02031D9A2F2608BE
:100F32002B02031CA42F0130A4002408AE070530A5
:100F42002E06031D852F290803390319B32F2D30CF
:100F5200A4002D0886008701240881000130A40026
:100F62002408AD072E08A4002408AA00FF30A4001C
:100F72002408AA072A0A03192F2F0A30F800003082
:100F8200F9002A08A400A501A435A50D0030240704
:100F920084008830253D8500003FF000013FF100CC
:100FA2002C08F3002B08F20086317A26873171086B
:100FB200FB007008FA0086314E2687317808303EF1
:100FC2002000A6002608AE002E08A4002D088600E8
:100FD2008701240881000130A4002408AD07B72F3F
:100FE2002D088600870181010800BB01BC01BD01FB
:100FF200BE01BF01C001C10120008631AE2E013405
:1010020000340A34003464340034E83403341034D5
:08101200273425346434003456
:020000040001F9
:04000E00A4C9FFDCA6
:00000001FF
