:0400000080312628FD
:10000800803120007F08F0002700131E18282000E8
:100018008C1E12280130B90700301528FF30B907A7
:10002800FF30BA3D270013120B1D22289C302000F8
:1000380095000130BD070030BE3D0B11700820004F
:10004800FF00090080312828FC0139308400003085
:1000580085000D3082311A222000813101292000CB
:10006800B1002630A8002808AC002508A9002408FB
:10007800A800A40A0319A50A2808840029088500ED
:100088000008AA002A08B20032080319FC28253003
:10009800320603195B283208A80031088600870158
:1000A800280881000130A8002808B1073928AD01C7
:1000B8002508A9002408A800A40A0319A50A2808E5
:1000C8008400290885000008B200003A0319FC28BA
:1000D800643A031973280D3A0319732839282C0830
:1000E80086008701403FAF00413FB0000230A800C2
:1000F8002808AC07B01F89280330A8002808AD04D9
:10010800AF09B009AF0A0319B00AB201B20A053043
:1001180032060319AE283208A800A901A835A90D8E
:100128000030280784008230293D8500003FAA005E
:10013800013FAB002B083002031DA4282A082F0218
:10014800031CAE280130A8002808B2070530320683
:10015800031D8F282D0803390319BD282D30A80049
:10016800310886008701280881000130A800280886
:10017800B1073208A8002808AE00FF30A8002808F8
:10018800AE072E0A031939280A30A0000030A10052
:100198002E08A800A901A835A90D00302807840059
:1001A8008230293D8500003FF100013FF200300810
:1001B800F4002F08F3008131872180317208200074
:1001C800A3007108A2008131BB21803120002008E2
:1001D800303EAA002A08B2003208A800310886007A
:1001E8008701280881000130A8002808B107C12824
:1001F800310886008701810108007A3021009900C2
:1002080030308C00A0308D008E0120008C018D01D3
:100218008E0123008C018D018E01303024008C006A
:1002280022009D131D11243023009E0090309D0054
:1002380000309C0067309B000130210095009C3005
:10024800200095000B118B161030270091009301A8
:100258008B150B178B17F43020003D06031D2F2933
:100268003E03031D2F293A08B6003908B50081312D
:10027800442181312000BD01BE01B901BA012F29F5
:100288002000B701B8013608B4003508B300823140
:100298000D2281312000B701B8013808803AFB00EF
:1002A80080307B02031D5A2907303702031877294B
:1002B8002000111E5C2937083F3E8600870101088F
:1002C80023009A00200011120130B7070030B83D12
:1002D8003808803AFB0080307B02031D75290730FF
:1002E8003702031C5C292000111E77290A302300DD
:1002F8009A0020001112111E7F290D3023009A0048
:10030800200011120800F601F701710872040319A0
:10031800B629F801F80AF21B9B290130F135F20DD4
:10032800890B92290130F5007508F8078F290130EB
:10033800F635F70D890B9C2972087402031DA6294E
:1003480071087302031CAD297108F3027208F43BAB
:1003580076140130F236F10C890BAE290130F8021F
:10036800031D9B297708F2007608F1000800200099
:10037800200821040319E329FA01FA0AA11BCE294E
:100388000130A035A10D890BC5290130F900790884
:10039800FA07C22921082302031DD42920082202B2
:1003A800031CDA292008A2022108A33B0130A13648
:1003B800A00C890BDB290130FA02031DCE29230882
:0803C800A1002208A0000800BA
:10040000013400340A34003464340034E8340334F2
:10041000103427342534643400340A302000A4001A
:100420008230A5003408A7003308A6003F30803191
:1004300033200800640080010131890B1B2A00343D
:020000040001F9
:04000E00A4C9FFDCA6
:00000001FF
