:08000000803102288731FC2F3A
:100D840021008C0102308D008E0120008C018D0128
:100D94008E0123008C018D018E01203024009500EA
:100DA400940120009111210091150B178B17080055
:100DB400F601F701F70A7230210099008631C22644
:100DC40086310730F0000030F1007608F300730834
:100DD400F20087312C27863124001108F3007308B0
:100DE400F8000330F5000830F4007830F300F30B1A
:100DF400F92EF40BF92EF50BF92E7803031D052FAC
:100E040020008C16072F20008C120730F0000030D1
:100E1400F1007708F3007308F20087312C2786313C
:100E240024001108F3007308F8000330F5000830BB
:100E3400F4007830F300F30B1D2FF40B1D2FF50B8A
:100E44001D2F7803031D292F20008C16E32E20006C
:100E54008C12E32E70087104031D3A2F20000C102D
:100E6400720824009100141C352F20000C14080073
:100E740070037104031D482F20008C107208240095
:100E84009100141C432F20008C14080002307006BB
:100E94007104031D572F20000C11720824009100C7
:100EA400141C522F20000C15080003307006710426
:100EB400031D662F20008C11720824009100141C5D
:100EC400612F20008C150800043070067104031D86
:100ED400752F20000C12720824009100141C702F2E
:100EE40020000C160800053070067104031D842FC1
:100EF40020008C12720824009100141C7F2F200003
:100F04008C160800063070067104031D932F200010
:100F14008D12720824009100141C8E2F20008D164F
:100F24000800073070067104031DA22F20008D13E2
:100F3400720824009100141C9D2F20008D170800B6
:100F4400083070067104031DB12F20000E107208C2
:100F540024009100141CAC2F20000E14080009304A
:100F640070067104031DC02F20008E107208240027
:100F74009100141CBB2F20008E1408000A30700648
:100F84007104031DCF2F20000E117208240091005C
:100F9400141CCA2F20000E1508000B3070067104B3
:100FA400031DDE2F20008E11720824009100141CF2
:100FB400D92F20008E1508000C3070067104031D13
:100FC400ED2F20000E12720824009100141CE82F4B
:100FD40020000E1608000D3070067104031D080071
:100FE40020008E12720824009100141CF72F200098
:0C0FF4008E160800F80120008631DA2E6D
:020000040001F9
:04000E00A4C9FFDCA6
:00000001FF
