:08000000803102288731FC2F3A
:100D180021008C0102308D008E0120008C018D0194
:100D28008E0123008C018D018E0121302400950055
:100D3800940120009111210091150B178B170800C1
:100D4800F701F70AF80172302100990086318C26E4
:100D580086310730F0000030F1007708F40074089D
:100D6800F20087312827863124001103031DDB2E6A
:100D780020008C160B30F6002630F5006630F400A3
:100D8800F40BC42EF50BC42EF60BC42E0032200033
:100D98008C120B30F6002630F5006630F400F40BA8
:100DA800D32EF50BD32EF60BD32E0032DD2E2000DA
:100DB8008C120B30F6002630F5006630F400F40B88
:100DC800E32EF50BE32EF60BE32E00320730F0008E
:100DD8000030F1007808F4007408F2008731282701
:100DE800863124001103031D182F20008C160B30A8
:100DF800F6002630F5006630F400F40B012FF50BF1
:100E0800012FF60B012F003220008C120B30F60058
:100E18002630F5006630F400F40B102FF50B102F78
:100E2800F60B102F00321A2F20008C120B30F60010
:100E38002630F5006630F400F40B202FF50B202F38
:100E4800F60B202F0032AD2E70087104031D362FCB
:100E580020000C10720824009100141C312F20006F
:100E68000C14080070037104031D442F20008C101B
:100E7800720824009100141C3F2F20008C140800D5
:100E8800023070067104031D532F20000C117208E4
:100E980024009100141C4E2F20000C15080003306C
:100EA80070067104031D622F20008C117208240043
:100EB8009100141C5D2F20008C150800043070066A
:100EC8007104031D712F20000C1272082400910078
:100ED800141C6C2F20000C160800053070067104D5
:100EE800031D802F20008C12720824009100141C0E
:100EF8007B2F20008C160800063070067104031D35
:100F08008F2F20008D12720824009100141C8A2F44
:100F180020008D160800073070067104031DA22FEB
:100F280020008D13720824009100141C992F1108B9
:100F3800F3007308F90020008D17080008307006C8
:100F48007104031DB12F20000E10720824009100B7
:100F5800141CAC2F20000E14080009307006710410
:100F6800031DC02F20008E10720824009100141C4D
:100F7800BB2F20008E1408000A3070067104031D70
:100F8800CF2F20000E11720824009100141CCA2FC4
:100F980020000E1508000B3070067104031DDE2FAB
:100FA80020008E11720824009100141CD92F2000F3
:100FB8008E1508000C3070067104031DED2F2000FB
:100FC8000E12720824009100141CE82F20000E163F
:100FD80008000D3070067104031D080020008E12F1
:100FE800720824009100141CF72F20008E160800A8
:080FF800F90120008631A42E4E
:020000040001F9
:04000E00A4C9FFDCA6
:00000001FF
