:040000008031112812
:10000800803120007F08F10080314A20F00070081C
:10001800F30071082000FF00090080311328F30164
:10002800200080311728F2017230210099008031B8
:1000380031208031720803192328F2012528F201A2
:10004800F20A7208240091007303031D2E28200071
:100058008D171E2820008D131E2821008C0150307A
:100068008D0040308E0020008C018D018E01230010
:100078008C018D018E01243024009500940120000C
:100088009111210091150B178B1708002000911D65
:1000980055282400141C552820009111240011080B
:0600A80008000030080012
:020000040001F9
:04000E00A4C9FFDCA6
:00000001FF
