:08000000803102288731FD2F39
:100F6E00F301F4017230210099008C0120008C01F4
:100F7E0023008C0121008D0120008D0123008D01A5
:100F8E0021008E0120008E0123008E0125009E017E
:100F9E00CC3093000A309600910122001E119E1152
:100FAE0020009C017C309B002500910192012000C5
:100FBE009A011C157C3073067404031DE82FF3018F
:100FCE00F4013E30250091000230F2000430F100B1
:100FDE00BA30F000F00BF12FF10BF12FF20BF12FD5
:100FEE0000000130F3070030F43DE12F200087317F
:020FFE00B72F0B
:020000040001F9
:04000E00A4C9FFDCA6
:00000001FF
