:0400000080312D28F6
:100008007E14803120007F08F30080314A2080313F
:1000180071087004031D272875087F39031D1828E7
:100028008031822080312728F51F1E2880319320B7
:1000380080312328F51B27288031A42080317508BA
:100048007E398031C4208B1773082000FF007E1092
:10005800090080312F28F5017E1020008031B52855
:1000680025009E01CC3093000A30960091012200B1
:100078001E119E11023020009C007C309B00250040
:100088009101920120009A011C1508002000911D81
:100098005B282400141C5B28200091118B1324007A
:1000A8001108F2007208F500F001F10108000130B2
:1000B800F0000030F10008007230210099008C0136
:1000C80050308D0040308E0020008C018D018E0153
:1000D80023008C018D018E010800250013080319E7
:1000E8007E288031DA2080314230F400F40B7A28FF
:1000F80000002500143020008E0008002500130899
:1001080003198F288031DF2080314230F000F00B56
:100118008B2800002500143020008E0008002500E0
:1001280013084C3A0319A0288031DF20803142306F
:10013800F000F00B9D2800004C30250093000800CB
:1001480025001308CC3A0319B1288031DF2080310B
:100158004230F000F00BAE280000CC3025009300B0
:100168000800803160208031803134208031803136
:10017800712080318031D12080310B178B17C32833
:10018800F0007C307002031CCD287C3025009100E3
:10019800080070082500910008002430240095000C
:1001A80094012000911121009115080020008E0172
:1001B80025009301080020008E0125009301080006
:020000040001F9
:04000E00A4C9FFDCA6
:00000001FF
