:04000000803117280C
:10000800803120007F08F100911D13282400141C62
:1000180013281108F0007008F400200091117108ED
:100028002000FF00090080311928F401F5012000A3
:1000380080311E2872302100990020308C00200069
:100048008C0123008C01123021008D0020008D01CD
:1000580023008D0125009E010A30960022001D1004
:100068009D101D15103020009C007C309B00250041
:100078009101920120009A011C1522001D139D1662
:10008800243024009500940120009111210091153D
:100098000B178B1775087406031968280F30740539
:1000A800F20064307202031C68282500910174086C
:1000B800F2007208F5000330F3009730F200F20BFB
:1000C8006328F30B63280032F41F6C28CC306D28AA
:1000D8004C302500930074080F39F2000230F235D5
:0C00E800FF3E031D7328723591004E2866
:020000040001F9
:04000E00A4C9FFDCA6
:00000001FF
